:100000000C9480020C94A8020C94A8020C946E1517
:100010000C946E150C946E150C94A8020C94A80206
:100020000C94A8020C94A8020C94A8020C94A802A8
:100030000C94A8020C94A8020C94A8020C94A80298
:100040000C9424150C94A8020C94F2140C94CC1467
:100050000C94A8020C94A8020C94A8020C94A80278
:100060000C94A8020C94A80207634236B79BD8A749
:100070001A39685618AEBAAB558C1D3CB7CC5763CD
:10008000BD6DEDFD753EF6177231BF000000803F7B
:1000900008000000BE922449123EABAAAA2ABECD97
:1000A000CCCC4C3E00000080BEABAAAAAA3E000009
:1000B0000000BF000000803F000000000008417801
:1000C000D3BB4387D1133D190E3CC3BD4282AD2B38
:1000D0003E68EC8276BED98FE1A93E4C80EFFFBE30
:1000E00001C4FF7F3F000000000000407A10F35A77
:1000F00000A0724E18090010A5D4E80000E8764868
:10010000170000E40B54020000CA9A3B000000E113
:10011000F505000080969800000040420F000000A6
:10012000A08601000000102700000000E803000086
:1001300000006400000000000A0000000000010050
:10014000000000002C76D888DC674F0823DFC1DF71
:10015000AE59E1B1B796E5E3E453C63AE651997674
:1001600096E8E6C28426EB898C9B62ED407C6FFCAE
:10017000EFBC9C9F40F2BAA56FA5F490055A2AF7F0
:100180005C936B6CF9676DC11BFCE0E40D47FEF5F9
:1001900020E6B500D0ED902E030094357705008061
:1001A000841E080000204E0A000000C80C333333C0
:1001B000330F986E12831141EF8D2114893BE65560
:1001C00016CFFEE6DB18D1844B381BF77C1D901D43
:1001D000A4BBE424203284725E228100C9F124ECA5
:1001E000A1E53D2725642E25642E25642E25640077
:1001F00044617461207061636B65742073656E6423
:10020000206572726F722028322900446174612067
:100210007061636B65742073656E64206572726FC4
:1002200072202831290041542B43495053454E44F4
:100230003D25642C2575004661696C656420746FEA
:1002400020777269746520746F20736F636B6574B7
:100250000041542B434950434C4F53453D256400C6
:10026000446973636F6E6E656374696E67200041E5
:10027000542B434950535441545553002B43495038
:100280005354415455533A25642C00456E642074F0
:100290006167206E6F7420666F756E64004E6F200C
:1002A00074616720666F756E64003E3E3E2054495F
:1002B0004D454F5554203E3E3E00005EBCE2613F3E
:1002C000DD83C29C7E20A3FD1F41009D23BE46DB33
:1002D00065F88C11AF32CA57E974000000002400A1
:1002E00027002A00000000080002010000030407A4
:1002F00000000000000000000D0A0053444B20766F
:10030000657273696F6E3A0041542B474D5200413C
:10031000542B4357444843503D312C310041542B1A
:1003200043574155544F434F4E4E3D300041542B9F
:1003300043495044494E464F3D310041542B4349B7
:10034000504D55583D310041542B43574D4F444576
:100350003D3100415445300041542B525354004923
:100360006E6974696C697A6174696F6E2073756304
:100370006365737366756C202D005761726E696ECC
:10038000673A20556E737570706F7274656420667D
:1003900069726D776172650043616E6E6F7420697A
:1003A0006E697469616C697A6520455350206D6F80
:1003B00064756C6500415400496E697469616C69CB
:1003C0007A696E6720455350206D6F64756C6500C7
:1003D0000D0A005354415455533A0041542B43499C
:1003E000505354415455530022003A5354414D4107
:1003F000432C220041542B43494653520022002BE8
:1004000043495041503A69703A220041542B4349C4
:100410005041503F0022003A53544149502C220091
:1004200041542B434946535200436F6E6E656374CB
:10043000656420746F004661696C656420636F6E4B
:100440006E656374696E6720746F0041542B435767
:100450004A41505F4355523D222573222C22257379
:1004600022004E6F20736F636B6574206176616943
:100470006C61626C650041542B43495053544152A6
:10048000543D25642C22544350222C222573222CC7
:10049000257500436F6E6E656374696E6720746FB7
:1004A0000054494D454F55543A0054616720434C20
:1004B0004F534544206E6F7420666F756E64000064
:1004C000000000230026002900000000002500286D
:1004D000002B0004040404040404040202020202C7
:1004E00002030303030303010204081020408001F8
:1004F0000204081020010204081020001B16E61553
:1005000011241FBECFEFD8E0DEBFCDBF13E0A0E0C7
:10051000B1E0E2E7F4E602C005900D92A636B1071D
:10052000D9F725E0A6E6B3E001C01D92A53BB207CE
:10053000E1F712E0CFE7D2E004C02197FE010E946C
:10054000E92FCE37D107C9F70E9448180C942C32F6
:100550000C9400008091170490911804DC01ED9137
:10056000FC910084F185E02D09951816190664F4B4
:100570008091170490911804DC01ED91FC910284A4
:10058000F385E02D0995E6CF089580916D05909152
:100590006E05009711F480E02FC0DC01ED91FC9115
:1005A0000688F789E02D09952091900530919105F5
:1005B00081111FC0232B79F78DEF9FEF9093910549
:1005C0008093900580916D0590916E05DC01ED9111
:1005D000FC910680F781E02D099580916D05909141
:1005E0006E05DC01ED91FC910488F589E02D0995FB
:1005F000D2CF81E0232B79F60895CF92DF92EF924C
:10060000FF92CF93DF93B0912005A0E08111AB2F33
:100610008091210590E0880F991FAC0141545B4FF8
:10062000C0902605D0902705E0902805F090290578
:1006300030E020E0FA01C591D491E881B90190E061
:1006400080E0EB23EA130AC02F5F3F4F6C157D0556
:100650008E059F0578F36FEF7FEFCB01DF91CF9190
:10066000FF90EF90DF90CF9008950895EF92FF9262
:100670000F931F93CF93DF938C017B01D0E0C0E0F9
:10068000F701EC0FFD1F6491662361F0D801ED9135
:10069000FC910190F081E02DC8010995892B11F0A2
:1006A0002196EECFCE01DF91CF911F910F91FF9058
:1006B000EF900895AF92BF92CF92DF92EF92FF92A8
:1006C0000F931F93CF93DF936C017B018B01040F7A
:1006D000151FEB015E01AE18BF08C017D10759F016
:1006E0006991D601ED91FC910190F081E02DC60158
:1006F0000995892B79F7C501DF91CF911F910F9152
:10070000FF90EF90DF90CF90BF90AF900895FC01E5
:10071000538D448D252F30E0842F90E0821B930B66
:10072000541710F0CF96089501970895FC01918D0C
:10073000828D981761F0A28DAE0FBF2FB11D5D960F
:100740008C91928D9F5F9F73928F90E008958FEFB1
:100750009FEF0895FC01918D828D981731F0828D65
:10076000E80FF11D858D90E008958FEF9FEF0895BC
:10077000FC01918D228D892F90E0805C9F4F821B20
:1007800091098F739927089589E194E00E94B80335
:1007900021E0892B09F420E0822F089580E090E089
:1007A000892B29F00E94C40381110C940000089544
:1007B000FC01A48DA80FB92FB11DA35ABF4F2C91D6
:1007C000848D90E001968F739927848FA689B789CD
:1007D0002C93A089B1898C91837080648C93938DC4
:1007E000848D981306C00288F389E02D80818F7D67
:1007F00080830895EF92FF920F931F93CF93DF931F
:10080000EC0181E0888F9B8D8C8D98131AC0E8894C
:10081000F989808185FF15C09FB7F894EE89FF891B
:100820006083E889F98980818370806480839FBFB9
:1008300081E090E0DF91CF911F910F91FF90EF90B9
:100840000895F62E0B8D10E00F5F1F4F0F731127C9
:10085000E02E8C8D8E110CC00FB607FCFACFE88904
:10086000F989808185FFF5CFCE010E94D803F1CFB1
:10087000EB8DEC0FFD2FF11DE35AFF4FF0829FB778
:10088000F8940B8FEA89FB8980818062CFCFCF9368
:10089000DF93EC01888D8823B9F0AA89BB89E889A8
:1008A000F9898C9185FD03C0808186FD0DC00FB64E
:1008B00007FCF7CF8C9185FFF2CF808185FFEDCFCC
:1008C000CE010E94D803E9CFDF91CF91089590E047
:1008D000FC01EC51FD4F2491FC01E951FB4F349197
:1008E000FC01ED52FB4FE491EE23C9F0222339F0D5
:1008F000233001F1A8F4213019F1223029F1F0E080
:10090000EE0FFF1FE753FB4FA591B4918FB7F894FB
:10091000EC91611126C030953E233C938FBF089522
:100920002730A9F02830C9F0243049F780918000A1
:100930008F7D03C0809180008F7780938000DFCF10
:1009400084B58F7784BDDBCF84B58F7DFBCF80915D
:10095000B0008F778093B000D2CF8091B0008F7DB0
:10096000F9CF3E2BDACFCF93DF9390E0FC01E95132
:10097000FB4F24918D529B4FFC0184918823C9F039
:1009800090E0880F991FFC01E652FD4FA591B491AC
:10099000FC01E753FB4FC591D49161110DC09FB786
:1009A000F8948C91209582238C9388812823288326
:1009B0009FBFDF91CF910895623051F49FB7F894B3
:1009C0003C91822F809583238C93E8812E2BEFCF4F
:1009D0008FB7F894EC912E2B2C938FBFEACF8064C5
:1009E00080937C0080917A00806480937A0080916B
:1009F0007A0086FDFCCF809178009091790008956F
:100A00003FB7F8948091AB039091AC03A091AD03F4
:100A1000B091AE0326B5A89B05C02F3F19F00196F3
:100A2000A11DB11D3FBFBA2FA92F982F8827BC0148
:100A3000CD01620F711D811D911D42E0660F771F70
:100A4000881F991F4A95D1F708958F929F92AF9270
:100A5000BF92CF92DF92EF92FF926B017C010E94D6
:100A600000054B015C01C114D104E104F104B9F0AB
:100A70000E940005681979098A099B09683E73403C
:100A80008105910580F321E0C21AD108E108F1083F
:100A900088EE880E83E0981EA11CB11CE4CFFF9065
:100AA000EF90DF90CF90BF90AF909F908F90089580
:100AB0002FB7F8946091A7037091A8038091A903C0
:100AC0009091AA032FBF0895CF92DF92EF92FF92E9
:100AD0000F931F93CF93DF93CDB7DEB7C054D140B0
:100AE0000FB6F894DEBF0FBECDBF0E94580500912F
:100AF00022051091230520912405309125056B01D5
:100B00007C01C01AD10AE20AF30A97018601003D6E
:100B100017402105310590F480912A05C05CDE4F15
:100B20000FB6F894DEBF0FBECDBFDF91CF911F91FE
:100B30000F91FF90EF90DF90CF9008956093220582
:100B400070932305809324059093250510921D052D
:100B500010921C0510921B0510921A05109219058F
:100B600062E080911E050E94B30461E070E080E0C5
:100B700090E00E94250561E080911E050E94B3046B
:100B800060E080911E050E94670480911F058551D9
:100B9000823020F58BE291E10197F1F762E08091DC
:100BA0001E050E94B30480912B0590E082309105D0
:100BB00038F0880F991F880F991F05970197F1F753
:100BC000F89480E00E94FD026F3F7F4F8F4F9F4F50
:100BD00061F410922A05789480E0A0CF64E170E07F
:100BE00080E090E00E942505D9CF81E00E94FD02BF
:100BF0006F3F7F4F8F4F9F4F61F38E010F5F1F4FEE
:100C00006E012FEBC21A2EEFD20A780180E00E940B
:100C1000FD02F701608371838283938381E00E94E8
:100C2000FD02F7016483758386839783F8E0EF0EF6
:100C3000F11CEC14FD0451F7789430E020E0F80149
:100C4000C080D180E280F3804481558166817781C4
:100C5000FFEFCF16DF06EF06FF0631F04F3F8FEFB5
:100C600058076807780719F410922A05B5CFF901DB
:100C700083E0F595E7958A95E1F7E75EFA4F808185
:100C8000880FC416D506E606F70610F180832F5F9D
:100C90003F4F085F1F4F2832310589F640911D05EF
:100CA0002091190580911A05280F3327331F809151
:100CB0001B05280F311D80911C05820F932F911D5C
:100CC00099274817190681F681E080932A0526CFD7
:100CD0008160DCCF8F929F92AF92BF92CF92DF92D2
:100CE000EF92FF92CF93DF93EC010E9458054B01E6
:100CF0005C0180916D0590916E05DC01ED91FC9198
:100D00000084F185E02D0995892BB9F40E945805DE
:100D10006B017C01C818D908EA08FB082091750509
:100D200030917605A8EEB3E00E94112DC616D706C5
:100D3000E806F906F0F280E00DC080916D05909113
:100D40006E05DC01ED91FC910284F385E02D09959F
:100D5000888381E0DF91CF91FF90EF90DF90CF907B
:100D6000BF90AF909F908F9008950F931F93CF9354
:100D7000DF93EC010E945805688779878A879B87F3
:100D8000E881F9810484F585E02DCE01099597FF6E
:100D900015C00E945805088519852A853B85601B6A
:100DA000710B820B930B0C811D812E813F8160178B
:100DB00071078207930720F38FEF9FEFDF91CF91A9
:100DC0001F910F910895BF92CF92DF92EF92FF9201
:100DD0000F931F93CF93DF938C01C8010E94B50638
:100DE000EC0197FD5DC0D801ED91FC910284F38583
:100DF000E02D8D32910521F0C0970A9708F04AC086
:100E0000C12CD12C7601B12CC130D105D9F0CD3215
:100E1000D10509F442C0CE01C0970A9798F4AAE020
:100E2000B0E0A70196010E94CF2C6E01DD0FEE0805
:100E3000FF08C60ED71EE81EF91EB0E3CB1AD10874
:100E4000E108F108D801ED91FC910284F385E02DD1
:100E5000C8010995C8010E94B506EC01C0970A9720
:100E600098F2C130D10581F2BB2041F0F094E094BA
:100E7000D094C094C11CD11CE11CF11CC701B60167
:100E8000DF91CF911F910F91FF90EF90DF90CF9066
:100E9000BF900895C8010995A0CFBB24B394D2CFC9
:100EA000C12CD12C7601EACFDC0180E0615090F0BA
:100EB0009D919827E92FEF70F0E0E654FD4F2491C3
:100EC000E92FE295EF70F0E0E653FD4FE491822FB9
:100ED0008E27ECCF0895DC012C911196ED91FC91B9
:100EE000F8948181822B81839281322F30959323D4
:100EF000928387E090E00197F1F7818183238183DA
:100F000083E290E00197F1F790817894EFECF0E0C4
:100F10003197F1F7922381E009F480E00895FC0114
:100F200090810180F281E02D292F209560FF14C06F
:100F3000F8948281822382838181892B8183A3E239
:100F4000B0E01197F1F78281982B9283789487ED26
:100F500090E00197F1F70895F894828182238283CB
:100F60008181892B8183AFEFB0E01197F1F7828106
:100F7000982B928378948FE090E0EBCFDF92EF9202
:100F8000FF920F931F93CF93DF93EC01D62EE42EA5
:100F900008E010E0FF24F39461E08D2D8F2109F427
:100FA00060E0CE010E948F07FF0C01501109A1F7EC
:100FB000E11010C0F894E981FA81918188818095CF
:100FC00089238183E981FA819281888180958923AF
:100FD00082837894DF91CF911F910F91FF90EF90D2
:100FE000DF900895EF92FF920F931F93CF93DF93BB
:100FF0008C017B0140E065E50E94BE07E70188E0C7
:10100000E80EF11C699140E0C8010E94BE07CE15B0
:10101000DF05C1F7DF91CF911F910F91FF90EF9006
:101020000895FC0190810180F281E02DF894818186
:10103000292F20958223818378943DE743E050E077
:10104000315029F1DA011197F1F780818923C1F339
:10105000F8948281822382838181892B8183789491
:10106000ABE7B7E01197F1F7F89481818223818390
:10107000A3E1B1E01197F1F78081982381E009F0B5
:1010800080E07894E3E6F6E03197F1F7089580E0A8
:1010900008956F927F928F929F92AF92BF92CF925C
:1010A000DF92EF92FF920F931F93CF93DF938C0108
:1010B000EB018091FD049091FE040E9411088823A9
:1010C00009F43FC0B8018091FD049091FE040E9494
:1010D000F20740E06EEB8091FD049091FE040E94C7
:1010E000BE077E016E0189E0C80ED11C8E01A09062
:1010F000FD04B090FE0488E0882E912C712C6624AB
:101100006394C5010E946B0781117628660CE1E0AB
:101110008E1A9108B1F7F80171928F01CE16DF0691
:1011200031F78091FD049091FE040E9411088130F6
:1011300041F4F70181917F01811105C0E017F107AA
:10114000C1F790E008C068E0CE010E94540791E02A
:1011500028852813F6CF892FDF91CF911F910F910A
:10116000FF90EF90DF90CF90BF90AF909F908F90C7
:101170007F906F9008952091DA043091DB04281756
:10118000390771F49091AF038091B003981741F043
:10119000E091AF03F0E0EA59FC4F808190E00895C0
:1011A0008FEF9FEF08950895EF92FF920F931F9393
:1011B000CF93DF93DC015C96ED90FC905D97E1149A
:1011C000F10479F481E090E013969C938E9312974A
:1011D00090E080E0DF91CF911F910F91FF90EF9011
:1011E00008955196ED91FC91529750968C9150979D
:1011F000982F90950FB75E962C915E97122F1270D4
:1012000021FD6095F8942081112319F1282B20836A
:10121000E7012197F1F728E0462F50E0308160FF89
:101220001AC0382B3083E7012197F1F7BA01759581
:101230006795215089F7112381F08081892380836C
:101240000FBF5C968D919C910197F1F781E090E042
:10125000C1CF2923DCCF3923E5CF9081892BEFCF74
:101260002091DA043091DB042817390771F480915A
:10127000B0032091AF0390E0805C9F4F821B9109E7
:1012800060E470E00E94BA2F089590E080E0089535
:101290002091DA043091DB0428173907B9F49091D2
:1012A000AF038091B003981789F0E091AF03F0E0AD
:1012B000EA59FC4F80812091AF0330E02F5F3F4F10
:1012C0002F7333272093AF0390E008958FEF9FEFA4
:1012D0000895EF92FF920F931F93CF93DF93EC014A
:1012E0008B017A010E945805688B798B8A8B9B8BC6
:1012F0008C819D81DC01ED91FC910280F381E02DD8
:10130000A701B801DF91CF911F910F91FF90EF904E
:1013100009941F93CF93DF93EC01162F0E94580579
:10132000688B798B8A8B9B8B8C819D81DC01ED9105
:10133000FC910190F081E02D612FDF91CF911F9101
:1013400009948F929F92AF92BF92CF92DF92EF92C9
:10135000FF920F931F93CF93DF934091130450910B
:1013600014046091150470911604141615061606DF
:10137000170644F490911204981709F417C19923A1
:1013800009F414C1F82E8091170490911804DC011F
:10139000ED91FC910084F185E02D0995892B19F4DC
:1013A00050E040E003C10091170410911804D0E010
:1013B000C0E00E945805F801608771878287938793
:1013C000D801ED91FC910284F385E02DC8010995C7
:1013D00097FF47C00E945805F80180849184A28439
:1013E000B384681979098A099B0984809580A6804D
:1013F000B780681579058A059B0510F3D1CFC1E048
:10140000D0E0D7CF4F014EE851E0209791F2BE01D6
:101410002197D4012E914D01022E000C330B82171F
:10142000930729F0209729F24F5F5F4FF0CF209765
:1014300031F36A01BFEFCB1ADB0AAEE8B1E030E06E
:1014400020E0BD90F601E1906F01BE1005C02F5F56
:101450003F4F2C173D07A8F3C217D30729F7EB011D
:10146000A8CFFE01E257FE4F2081022E000C330B65
:101470008217930739F62196C530D10509F099CF27
:1014800080911704909118040E94E306609312045F
:101490008091170490911804DC01ED91FC91028475
:1014A000F385E02D099580911704909118040E940E
:1014B000E3066093130470931404809315049093CF
:1014C00016048091170490911804DC01ED91FC91B1
:1014D0000284F385E02D09958091170490911804FA
:1014E0000E94E3068091170490911804DC01ED91AD
:1014F000FC910284F385E02D099580911704909169
:1015000018040E94E3068091170490911804DC01EE
:10151000ED91FC910284F385E02D099580911704EB
:10152000909118040E94E30680911704909118048A
:10153000DC01ED91FC910284F385E02D0995809109
:101540001704909118040E94E3068091170490916B
:101550001804DC01ED91FC910284F385E02D0995DE
:101560008091170490911804DC01ED91FC910284A4
:10157000F385E02D099580911704909118040E943D
:10158000E3068091170490911804DC01ED91FC9121
:101590000284F385E02D099580911204F81611F06C
:1015A000F110FECE4091130450911404CA01DF9152
:1015B000CF911F910F91FF90EF90DF90CF90BF9050
:1015C000AF909F908F90089521E0FC0184858F3F1C
:1015D00009F420E0822F0895CF93DF93EC01E88196
:1015E000F9810084F185E02DCE010995892B41F028
:1015F000E881F9810284F385E02DCE010995EFCFD2
:10160000DF91CF9108958F929F92AF92BF92EF9208
:10161000FF920F931F93CF93DF93EC017B018A011D
:10162000E881F9810084F185E02D0995892B69F421
:101630008FEF9FEFDF91CF911F910F91FF90EF9070
:10164000BF90AF909F908F9008959C8580911204D9
:10165000981336C08091130490911404A09115043E
:10166000B0911604A80170E060E084179507A60702
:10167000B7070CF48C01E701E00EF11EEC16FD0635
:10168000E9F00E9458054B015C018091170490918C
:101690001804DC01ED91FC910284F385E02D09959D
:1016A00097FF11C00E945805681979098A099B099A
:1016B000683E73408105910540F3BACFC801BACFA7
:1016C00080E090E0B7CF8993809113049091140447
:1016D000A0911504B09116040197A109B109809356
:1016E000130490931404A0931504B0931604C6CF6A
:1016F000FC0184858F3F21F00E94A10997FF02C061
:1017000090E080E00895CF93DF931F92CDB7DEB7CE
:101710006983DC01ED91FC910280F381E02D41E0D1
:1017200050E0BE016F5F7F4F09950F90DF91CF9121
:10173000089590E080E00895BF92CF92DF92EF92FB
:10174000FF920F931F93CF93DF93EC01B62EC72E1A
:101750008D85811105C0CE010E94110881110EC036
:101760001B861D861C8680E0DF91CF911F910F9113
:10177000FF90EF90DF90CF90BF90089540E060EF32
:10178000CE010E94BE0701E0E12CD12C11E0CE0178
:101790000E946B07F82ECE010E946B0791E0F912B0
:1017A00018C0813099F51134D8F2DB86D11002C00F
:1017B00081E08D878B81882399F22396EB2DFC2D78
:1017C000CF01089629912193E817F907D9F781E00D
:1017D000CBCFEE2DF0E0F8120FC08B851817A0F4D8
:1017E000DE01AE0FBF1F13968C91802379F4F12C8C
:1017F000193008F41C87D12EEC0FFD1F8381902F28
:101800009095892383830AC08113F1CFFE01EE0DE9
:10181000F11D8381802B8383FF24F3946F2DCE01F0
:101820000E948F071F5F000F11F4E39401E087E02F
:101830008E1508F0ACCFB7CFCF93DF93EC0160E00B
:101840008E810E94670461E08E810E94670460E0DF
:101850008E810E9467048BE891E00197F1F7DF9198
:10186000CF910895CF92DF92EF92FF920F931F9343
:10187000CF93DF936C017C0187E0E80EF11CD0E090
:10188000C0E0062F10E0B8010C2E02C075956795D8
:101890000A94E2F76170F70181917F010E94670469
:1018A0002196C430D10579F7C601DF91CF911F9100
:1018B0000F91FF90EF90DF90CF900C941C0CCF9283
:1018C000DF92EF92FF920F931F93CF93DF93EC0180
:1018D000F62E642F8C810E9467048D818F3F19F052
:1018E00060E00E9467040F2D10E08F8584FF25C003
:1018F0006E0187E0C80ED11CF12CE12CB8010E2C32
:1019000002C0759567950A94E2F76170F6018191BE
:101910006F010E946704FFEFEF1AFF0A88E0E816E4
:10192000F10461F7CE01DF91CF911F910F91FF90EC
:10193000EF90DF90CF900C941C0CB80184E075956B
:1019400067958A95E1F7CE010E94320C6F2DCE018A
:10195000DF91CF911F910F91FF90EF90DF90CF908B
:101960000C94320C40E0682F82E395E00C945F0CFD
:1019700081E00E94B20C8BE39FE10197F1F708959B
:10198000CF93DF93823029F4909141059860909332
:101990004105809345051092460580E480934705F4
:1019A00080E18093480580E58093490561E080915E
:1019B00036050E94B304809137058F3F19F061E02E
:1019C0000E94B30461E0809138050E94B304C2E331
:1019D000D5E09E01225335408091410584FD0BC026
:1019E00084E090E021962817390744F461E08E8165
:1019F0000E94B304EECF88E090E0F4CF8BE39DE04B
:101A00000197F1F760E0809136050E94670460E07D
:101A1000809138050E946704809137058F3F19F047
:101A200060E00E9467048091410584FD34C063E05A
:101A300082E395E00E94320CCBE4D6E4CE0101971C
:101A4000F1F763E082E395E00E94320C2197F1F711
:101A500063E082E395E00E94320C83E592E0019717
:101A6000F1F762E082E395E00E94320C809141053B
:101A700080620E94B20C84E0809342058CE00E9458
:101A8000B20C0E94B80C82E08093430586E0DF919F
:101A9000CF910C94B20C80620E94B20C8BE496E45D
:101AA0000197F1F78091410580620E94B20C83E5B5
:101AB00092E00197F1F78091410580620E94B20C9B
:101AC000D5CF90914505691710F06FEF690FE62F9C
:101AD000F0E0EE5CFA4F9489890F80680C94B20CA8
:101AE00041E00E945F0C81E090E00895CF93DF9386
:101AF000EC0188819981009711F00E948B30198246
:101B000018821D821C821B821A82DF91CF91089558
:101B1000FC0180819181009711F00C948B30089525
:101B2000FC0101900020E9F731979F01281B390B38
:101B3000E091AB05F091AC05E21BF30B4091A705DA
:101B40005091A805E417F50730F46091A505709150
:101B5000A605E60FF71F280F391F6091A9057091A0
:101B6000AA05DC018217930758F40196BC91A08165
:101B7000BA1308C03196E617F70799F7FA01F1CFC3
:101B800081E0089580E00895FB0101900020E9F7CD
:101B90003197AF01461B570BDC01ED91FC910280A0
:101BA000F381E02D09948F929F92AF92BF92EF92B2
:101BB000FF920F931F93CF93DF93CDB7DEB7A1971B
:101BC0000FB6F894DEBF0FBECDBF7C01FA01CB018A
:101BD00019A2223008F42AE08E010F5D1F4F822ED9
:101BE000912CB12CA12CBF01A50194010E948E2C37
:101BF000F901CA016A300CF5605DD8016E938D0160
:101C0000232B242B252B79F790E080E0109721F0EF
:101C1000BD01C7010E94C40DA1960FB6F894DEBFA6
:101C20000FBECDBFDF91CF911F910F91FF90EF902D
:101C3000BF90AF909F908F900895695CDECFCF9258
:101C4000DF92EF92FF920F931F93CF93DF93EC01FC
:101C50006A017B01E881F9810190F081E02D6DE25C
:101C600009958C0144275527BA014C195D096E0965
:101C70007F092AE0CE010E94D30D800F911FDF91D2
:101C8000CF911F910F91FF90EF90DF90CF9008952B
:101C9000AB01770F660B770B77FD0C941F0E2AE0D4
:101CA0000C94D30D242F462F50E070E060E00C948C
:101CB000D30D8F929F92AF92BF92CF92DF92EF920D
:101CC000FF920F931F93CF93DF937C01EB016C0185
:101CD00082E0C80ED11C4701E5E08E0E911C10E099
:101CE00000E0F60161916F014AE050E0CE010E94F0
:101CF000520E5C01E881F9810190F081E02D6EE2E5
:101D0000CE0109958A0D9B1D080F191FC814D9040F
:101D100041F74AE050E0F7016581CE010E94520E82
:101D2000800F911FDF91CF911F910F91FF90EF9046
:101D3000DF90CF90BF90AF909F908F9008950F93BA
:101D40001F93CF93DF93EC010E94520E8C0166EA41
:101D500071E0CE010E94C40D800F911FDF91CF91E1
:101D60001F910F9108950F931F93CF93DF938C01D1
:101D7000D0E0C0E06115710519F00E94C40DEC01BE
:101D800066EA71E0C8010E94C40D8C0F9D1FDF91AF
:101D9000CF911F910F9108950F931F93CF93DF93CE
:101DA000EC010E9436038C0166EA71E0CE010E94CC
:101DB000C40D800F911FDF91CF911F910F91089556
:101DC0000C94C40D3F924F925F926F927F928F92CC
:101DD0009F92AF92BF92CF92DF92EF92FF920F93BA
:101DE0001F93CF93DF936C012B01342E8091A705B5
:101DF0009091A8059093AC058093AB050E9458057F
:101E00004B015C0166246A94762C0D2C000CEE08C4
:101E1000FF080E945805681979098A099B096C1501
:101E20007D058E059F0508F05BC08FEF681678066C
:101E300009F056C08091170490911804DC01ED91CF
:101E4000FC910084F185E02D0995892B11F3809197
:101E5000170490911804DC01ED91FC910284F38544
:101E6000E02D0995E091AB05F091AC058083809160
:101E7000AB059091AC0501969093AC058093AB05B2
:101E80002091A9053091AA058217930740F080910F
:101E9000A7059091A8059093AC058093AB054114DC
:101EA000510441F0C2010E94900D882319F085E091
:101EB000682E712C332009F4ACCF0EE111E0D0E094
:101EC000C0E0F801819191918F010E94900D8111E4
:101ED00005C02196C530D105A1F79BCF3E0199CF12
:101EE0000E945805681979098A099B096C157D05B6
:101EF0008E059F0560F064E971E089E194E00E943D
:101F0000E00E6AEA72E089E194E00E94CC0EC3011F
:101F1000DF91CF911F910F91FF90EF90DF90CF90C5
:101F2000BF90AF909F908F907F906F905F904F90F9
:101F30003F900895CF93DF93EC010E94AA02BE0167
:101F400080911704909118040E94CC0E41E070E03B
:101F500060E088EE93E0DF91CF910C94E20EAF92B7
:101F6000BF92CF92DF92EF92FF920F931F93CF9386
:101F7000DF93B82EEB01A42E89010E9458056B0156
:101F80007C018091170490911804DC01ED91FC9183
:101F90000084F185E02D0995892B09F47EC080919C
:101FA000170490911804DC01ED91FC91AA20E9F04E
:101FB0000484F585E02D0995888380911304909120
:101FC0001404A0911504B0911604892B8A2B8B2B35
:101FD00029F181E0DF91CF911F910F91FF90EF9058
:101FE000DF90CF90BF90AF9008950284F385E02DED
:101FF000099588838091130490911404A09115048D
:10200000B09116040197A109B1098093130490932C
:102010001404A0931504B0931604CFCF65E070E0CC
:1020200080E090E00E9425058091170490911804AB
:10203000DC01ED91FC910084F185E02D0995892B5F
:1020400041F28091170490911804DC01ED91FC910C
:102050000484F585E02D09952B2D30E0205D3F4F60
:102060008217930709F0B5CF40E06FE971E084EF84
:1020700091E00E94E20E059761F064E971E089E168
:1020800094E00E94E00E6AEA74E089E194E00E9424
:10209000CC0E81E0F80180839DCF0E9458056C1919
:1020A0007D098E099F09603D77408105910508F4FF
:1020B00068CF64E971E089E194E00E94E00E61EA92
:1020C00074E089E194E00E94360363E373E089E100
:1020D00094E00E94E00E409113045091140460912A
:1020E00015047091160477FF17C089E194E00E94EF
:1020F0001F0E66EA71E089E194E00E94C40D10921F
:1021000013041092140410921504109216041092E5
:102110001204188280E05ECF2AE089E194E00E94F8
:10212000D30DE7CF0F931F93CF93DF9300D0CDB79D
:10213000DEB78C01DC01ED91FC910084F185E02D8E
:102140000995892B59F11A82F8018485909112041E
:10215000891309C09E012E5F3F4F41E0BE016F5FB2
:102160007F4F0E94AF0F8A81882379F0D8011C9697
:10217000EC911C97F0E0EE0FFF1FE05FFE4F8FEF3A
:102180009FEF918380831C968C93898190E00F90C0
:102190000F90DF91CF911F910F9108958FEF9FEFD7
:1021A000F6CF0F931F93CF93DF9300D0CDB7DEB759
:1021B0008C01DC01ED91FC910084F185E02D099505
:1021C000892B59F11A82F8018485909112048913A0
:1021D00009C09E012E5F3F4F40E0BE016F5F7F4F01
:1021E0000E94AF0F8A81882379F0D8011C96EC9168
:1021F0001C97F0E0EE0FFF1FE05FFE4F8FEF9FEFA9
:10220000918380831C968C93898190E00F900F902E
:10221000DF91CF911F910F9108958FEF9FEFF6CF30
:102220000F931F93CF93DF938C01EB01FC0180810F
:1022300091810097E1F06881798161157105A9F0BC
:10224000428153812C813D814217530770F00E94D7
:10225000F3318C819D81F801958384831D821C82DA
:10226000DF91CF911F910F9108950E948B3088814B
:102270009981F801918380838A819B8193838283F2
:102280008C819D8195838483198218821B821A8296
:10229000E5CF0F931F93CF93DF93EC018881998152
:1022A000009759F02A813B812617370730F081E0EB
:1022B000DF91CF911F910F9108958B016F5F7F4F39
:1022C0000E941431009759F0998388831B830A83F5
:1022D0002C813D81232B59F7FC011082E8CF80E04F
:1022E000E7CFEF92FF920F931F93CF93DF93EC0111
:1022F0007B01198218821B821A821D821C82FB01BB
:1023000001900020E9F731978F01061B170BB801E8
:102310000E944911811109C0CE01DF91CF911F9117
:102320000F91FF90EF900C94760D1D830C83B701F5
:1023300088819981DF91CF911F910F91FF90EF904C
:102340000C94F331CF93DF93CDB7DEB7C85CD109DE
:102350000FB6F894DEBF0FBECDBF9E012F523F4F88
:10236000C353DF4F48815981CD5CD04068EC70E0A9
:10237000CE0101960E94AA260E94AA02BE016F5FAA
:102380007F4F80911704909118040E94B30E41E092
:1023900070E060E0C153DF4F88819981CF5CD0400D
:1023A0000E94E20EC853DF4F0FB6F894DEBF0FBE97
:1023B000CDBFDF91CF910895EF92FF920F931F93BE
:1023C000CF93DF93EC01162F072FF42EE52E64E94F
:1023D00071E089E194E00E94E00E63E974E089E134
:1023E00094E00E94360363E373E089E194E00E9485
:1023F000E00E612F702F89E194E00E94B30EE0E1BE
:10240000F1E083E090E0268137812F3F3F4F31F0AC
:10241000019732978F3F9807B1F78FEF8C878F3FE7
:1024200069F1EF92FF920F931F931F928F9383E1B5
:102430008F9388E88F9386E794E09F938F930E9411
:10244000A2112DB73EB7265F3F4F0FB6F8943EBF9F
:102450000FBE2DBF892BF1F48C8590E0FC01EE0FAF
:10246000FF1FE05FFE4F9183808381E090E0DF916A
:10247000CF911F910F91FF90EF90089564E971E063
:1024800089E194E00E94E00E62E674E089E194E064
:102490000E94CC0E90E080E0EACF0C94DC11CF9348
:1024A000DF93FC0124852F3FC1F1EC0164E971E069
:1024B00089E194E00E94E00E60E672E089E194E038
:1024C0000E94360363E373E089E194E00E94E00E2A
:1024D0004AE050E06C8589E194E00E949F0E8C8573
:1024E0001F928F938FE08F9380EA8F9381E592E024
:1024F0009F938F930E94A211EC85F0E0EE0FFF1FD7
:10250000E05FFE4F8FEF9FEF918380838C870F906A
:102510000F900F900F900F900F90DF91CF91089533
:10252000AF92BF92CF92DF92EF92FF920F931F93E1
:10253000CF93DF935C016B017A01E90118820E945D
:10254000AA02B50180911704909118040E94CC0E44
:1025500041E0B60188EE93E00E94E20E85309105DD
:1025600009F058C08091A7059091A8059093AC05FB
:102570008093AB054091A5055091A6054F5F5F4F35
:1025800070E060E00E94EC3141E0B70184EF91E03F
:102590000E94E20E059781F5A80141505109F7010B
:1025A00001900020E9F73197EE19FF096091A70526
:1025B0007091A8058091AB059091AC05861B970B97
:1025C0008E1B9F0B4817590708F0AC01CE010E94E3
:1025D000FA3141E070E060E080ED97E00E94E20EA9
:1025E00081E0DF91CF911F910F91FF90EF90DF90ED
:1025F000CF90BF90AF90089564E971E089E194E0D5
:102600000E94E00E6BE872E089E194E00E94CC0E3B
:1026100080E0E7CF0597E0F364E971E089E194E0B9
:102620000E94E00E6DE972E0EFCF4F925F926F92E1
:102630007F928F929F92AF92BF92CF92DF92EF9252
:10264000FF920F931F93CF93DF93CDB7DEB74C016B
:102650006B015A0139014DB65EB6CB010E943F268F
:1026600001962DB73EB7281B390B0FB6F8943EBF25
:102670000FBE2DBF8DB79EB701967C01B6010E949B
:102680003826C5010E943F2601962DB73EB7281B6C
:10269000390B0FB6F8943EBF0FBE2DBF8DB79EB756
:1026A00001966C01B5010E9438269301A601B7017D
:1026B000C4010E9490120FB6F8945EBE0FBE4DBECC
:1026C000DF91CF911F910F91FF90EF90DF90CF900E
:1026D000BF90AF909F908F907F906F905F904F9042
:1026E0000895CF92DF92EF92FF920F931F93CF93B3
:1026F000DF93CDB7DEB76E970FB6F894DEBF0FBE8F
:10270000CDBFFC0184858F3FD1F17F010E94A109DB
:10271000892B21F5D7011C968C911F928F938CE702
:1027200092E09F938F93FE0131966F01FF93EF9399
:102730000E9487260AE010E09E012B5E3F4F42E98F
:1027400051E0B6018FE692E00E9490120F900F9038
:102750000F900F900F900F90882311F094E010C00D
:10276000D7011C96EC911C97F0E0EE0FFF1FE05F85
:10277000FE4F8FEF9FEF918380831C968C9390E0A8
:1027800081E0943009F080E06E960FB6F894DEBFD9
:102790000FBECDBFDF91CF911F910F91FF90EF90B2
:1027A000DF90CF900895AF92BF92CF92DF92EF92D9
:1027B000FF920F931F93CF93DF93CDB7DEB764974C
:1027C0000FB6F894DEBF0FBECDBF7C015B018A015E
:1027D000DC011C968C91843018F441155105C9F424
:1027E00081E090E0F7019383828310E000E0C8016C
:1027F00064960FB6F894DEBF0FBECDBFDF91CF91C8
:102800001F910F91FF90EF90DF90CF90BF90AF900E
:1028100008951F934F931F928F9386E292E09F93A8
:102820008F939E012F5F3F4F69013F932F930E942B
:102830008726B60180911704909118040E94B30E68
:1028400040E069EA71E088EE93E00E94E20E0FB684
:10285000F894DEBF0FBECDBF0597D9F164E971E0F2
:1028600089E194E00E94E00E6BE072E089E194E07F
:102870000E94CC0E81E090E0F7019383828364E9AB
:1028800071E089E194E00E94E00E67E372E089E183
:1028900094E00E94360363E373E089E194E00E94D0
:1028A000E00E4AE050E0D7011C966C9189E194E07B
:1028B0000E949F0E60EA7FE080E090E00E94250584
:1028C000D701ED91FC910488F589E02DC7010995A8
:1028D0008CCF8091170490911804DC01ED91FC914C
:1028E0000280F381E02DA801B501099541E070E077
:1028F00060E080ED97E00E94E20E039709F477CF45
:1029000064E971E089E194E00E94E00E60EF71E01B
:10291000ADCFCF92DF92EF92FF920F931F93CF93A1
:10292000DF93CDB7DEB760970FB6F894DEBF0FBE6A
:10293000CDBF7C01FB016A0185811F928F93848149
:102940001F928F9383811F928F9382811F928F9307
:1029500084EE91E09F938F938E010F5F1F4F1F9323
:102960000F930E948726A601B801C7010E94DC11BF
:102970000FB6F894DEBF0FBECDBF60960FB6F894C9
:10298000DEBF0FBECDBFDF91CF911F910F91FF90A2
:10299000EF90DF90CF9008951F920F920FB60F9295
:1029A00011242F933F934F935F936F937F938F9354
:1029B0009F93AF93BF93EF93FF9389E194E00E94BD
:1029C000D803FF91EF91BF91AF919F918F917F912C
:1029D0006F915F914F913F912F910F900FBE0F908C
:1029E0001F9018951F920F920FB60F9211242F93DC
:1029F0008F939F93EF93FF93E0912904F0912A0422
:102A00008081E0912F04F091300482FD1BC0908101
:102A1000809132048F5F8F7320913304821741F0CD
:102A2000E0913204F0E0E75EFB4F958F8093320433
:102A3000FF91EF919F918F912F910F900FBE0F906B
:102A40001F9018958081F4CF1F920F920FB60F92AE
:102A500011242F933F938F939F93AF93BF938091B4
:102A6000A7039091A803A091A903B091AA03309164
:102A7000A60323E0230F2D3758F50196A11DB11DA4
:102A80002093A6038093A7039093A803A093A90380
:102A9000B093AA038091AB039091AC03A091AD03D6
:102AA000B091AE030196A11DB11D8093AB0390932D
:102AB000AC03A093AD03B093AE03BF91AF919F91D0
:102AC0008F913F912F910F900FBE0F901F901895EF
:102AD00026E8230F0296A11DB11DD2CF1F920F929F
:102AE0000FB60F9211242F933F934F935F936F93E1
:102AF0007F938F939F93AF93BF93EF93FF93E09157
:102B0000DA04F091DB04309749F0A685B785858516
:102B1000968D91FF14C09C918923A1F4FF91EF91B0
:102B2000BF91AF919F918F917F916F915F914F91E5
:102B30003F912F910F900FBE0F901F9018959C9171
:102B4000892361F7A389B4899C918589809589231C
:102B50008C93868997890197F1F7608D718DA68591
:102B6000B785558538E020E0CB010197F1F7822F3A
:102B700090E095958795282F4C91452309F0206882
:102B8000315091F7868D81FD20958091B00390E0C2
:102B900001968F7399273091AF03381799F0A09160
:102BA000B003B0E0AA59BC4F2C938093B003828D40
:102BB000938D0197F1F7A389B4898C919589892B1D
:102BC0008C93ACCF868D8160868FF1CF8CED94E0B5
:102BD0000E94880D82EE94E00E94880D88EE94E0B9
:102BE0000E94880D8EEE94E00E94880D8CE295E0A4
:102BF0000E94880D80E891E090934B0580934A05F0
:102C00008091DA049091DB048A54954071F4E0914C
:102C10005D05F0915E05908180915F058095892327
:102C200080831092DB041092DA0480916F059091FA
:102C300070050C948B30CF92DF92EF92FF92CF937E
:102C4000DF9310921C0410921B0428EEC22E23E086
:102C5000D22EE12CF12CC0921D04D0921E04E092E1
:102C60001F04F092200482E391E090931A04809371
:102C7000190485EC90E0909326048093250484EC5D
:102C800090E0909328048093270480EC90E0909348
:102C90002A048093290481EC90E090932C04809383
:102CA0002B0482EC90E090932E0480932D0486EC0C
:102CB00090E09093300480932F041092320410928D
:102CC00033041092340410923504CAE7D1E0D09353
:102CD000B704C093B6041092B8041092B9041092CD
:102CE000BA041092BB04D093BD04C093BC041092EC
:102CF000BE041092BF041092C0041092C10480E27E
:102D000090E09093A6058093A50581E290E00E9453
:102D1000EF2F9093A8058093A7059C01205E3F4F5D
:102D20003093AA052093A9059093AC058093AB0539
:102D300021E2FC0111922A95E9F7D093C304C093D4
:102D4000C2041092C4041092C5041092C6041092DA
:102D5000C704D093C904C093C8041092CA04109247
:102D6000CB041092CC041092CD04D093CF04C09326
:102D7000CE041092D0041092D1041092D20410927A
:102D8000D304D093D504C093D4041092D6041092E7
:102D9000D7041092D8041092D904D093A005C09300
:102DA0009F051092A1051092A2051092A305109202
:102DB000A4051092950510929405C0929605D092A4
:102DC0009705E0929805F09299058CE591E0909333
:102DD0009305809392058FEF80939E0510926C056A
:102DE00010926B0580E591E090936A0580936905E8
:102DF000D0938505C09384051092860510928705AF
:102E000010928805109289058FEF9FEF909391059E
:102E10008093900582E995E090936E0580936D050F
:102E200010928F0510928E0580E091E00E94EF2FA6
:102E30009093700580936F0580E091E09093720508
:102E4000809371058FE090E09093740580937305F3
:102E5000909376058093750510924D0510924C0560
:102E6000C0924E05D0924F05E0925005F092510568
:102E700080E891E090934B0580934A05109261059C
:102E8000109260051092630510926205109265051C
:102E900010926405109267051092660560916805AE
:102EA0006E7F6D7F609368056695617081E068272D
:102EB00087E00E94670461E087E00E94B304EEEEC1
:102EC000F4E0E491E0935A05EAEDF4E0E491F0E0F7
:102ED000EE0FFF1FE753FB4F8591949190935C0594
:102EE00080935B0560E086E00E94B30480916805F2
:102EF00081FD04C061E086E00E94670486E0809363
:102F00005605EDEEF4E0E491E0935705E9EDF4E0C9
:102F1000E491F0E0EE0FFF1FE154FB4F8591949197
:102F200090935905809358051092350510923405F9
:102F300084E491E0909333058093320580E180939F
:102F400036058FEF80933705C9E0C09338058AE0D6
:102F5000809339058BE080933A058CE080933B05A4
:102F60008DE080933C0510923D0510923E05109235
:102F70003F05109240051092410581E00E94C00C6F
:102F800061ED72E08CE295E00E94711185E0809322
:102F90001E0586E180931F05ECEEF4E0E491E093DA
:102FA0002005E8EDF4E0E491E093210580E89EE35C
:102FB000A0E0B0E08093260590932705A093280514
:102FC000B093290560E084E00E94B304EBEEF4E0E6
:102FD000E491E0930B05E7EDF4E0E491F0E0EE0F0F
:102FE000FF1FE154FB4F8591949190930D058093C1
:102FF0000C051092160510921805109217051092E4
:1030000015051092140510921305109212051092D6
:1030100011051092100510920F0510920E051092D6
:103020000A05109209051092F5048BE095E0909343
:10303000FE048093FD041092FB041092FC04109295
:10304000F404C093F70481E08093F8048093F904BA
:103050008093FA046BEA71E08EEE94E00E947111A5
:1030600061ED72E088EE94E00E94711161ED72E012
:1030700082EE94E00E94711161ED72E08CED94E0BB
:10308000DF91CF91FF90EF90DF90CF900C94711172
:10309000CF93DF93CDB7DEB7ED970FB6F894DEBFD1
:1030A0000FBECDBF789484B5826084BD84B5816045
:1030B00084BD85B5826085BD85B5816085BD809103
:1030C0006E00816080936E0010928100809181007B
:1030D0008260809381008091810081608093810073
:1030E000809180008160809380008091B100846035
:1030F0008093B1008091B00081608093B000809196
:103100007A00846080937A0080917A008260809354
:103110007A0080917A00816080937A0080917A00B1
:10312000806880937A001092C10082E00E94C00CF7
:1031300080E40E94B20C08E011E0D8016D918D018D
:1031400082E395E00E94700DB1E000311B07A9F702
:1031500088E40E94B20C00E011E078E0E72E71E014
:10316000F72EF80161918F0182E395E00E94700DC6
:10317000E016F106B1F7E0912904F0912A0482E00B
:103180008083E0912504F09126041082E0912704C9
:10319000F091280480E1808310923104E0912D04A5
:1031A000F0912E0486E08083E0912B04F0912C04B2
:1031B000808180618083E0912B04F0912C048081D8
:1031C00088608083E0912B04F0912C0480818068DA
:1031D0008083E0912B04F0912C0480818F7D80838B
:1031E000E091FD04F091FE04138615861486128684
:1031F000118610861782168215821482138210920D
:10320000FB041092FC0411E0BE016E5D7F4F8091C3
:10321000FD049091FE040E949C0B882309F475C064
:1032200067E0CE0182960E94540799A58913ECCFDE
:103230008091FB048F5F8093FB048AA1883231F078
:1032400008F049C0803111F08232F1F68091FC041F
:103250008F5F8093FC048091F404811128C08091D9
:10326000FD049091FE040E941108BE016E5D7F4F27
:103270008091FD049091FE040E94F20740E064EB0F
:103280008091FD049091FE040E94BE078091FD0490
:103290009091FE040E946B07082F8091FD0490918D
:1032A000FE040E941108011102C01093F4048AA1C7
:1032B0008031E1F0BE016F5F7F4FCE0182960E94A8
:1032C0004908882331F08D818F3391F058F48F3184
:1032D000C1F080E00EC08B3309F4B8CF823409F01E
:1032E00093CFB4CF8F3579F08F3799F78CE001C049
:1032F0008AE09091F704981708F086CF8093F7043E
:1033000083CF89E0F6CF8BE0F4CF62E080911E0599
:103310000E94B3040E945805605D774081099109BD
:1033200060932205709323058093240590932505CF
:1033300087E380932B0560E080E00E94610D6AEBDB
:1033400071E082E395E00E94E00E61E080E00E947F
:10335000610D6AEC71E082E395E00E94E00E68EB9B
:103360007BE080E090E00E94250561E087E00E941C
:10337000610D6AED71E089E194E00E94B30E0E9454
:10338000B80C60E080E00E94610D6AED71E082E3BC
:1033900095E00E94E00E68EE73E080E090E00E940D
:1033A0002505109265051092640510926305109230
:1033B000620510926105109260058DE991E090938D
:1033C00067058093660590915605963108F047C0D1
:1033D0002DEB30E030936105209360052BE931E05F
:1033E00030936305209362052CE231E0309365054C
:1033F000209364052091680084E0983048F031E023
:103400009E3008F430E081E001C0880F3A95EAF779
:10341000822B809368002DE630E0983050F02BE648
:1034200030E09E3030F02CE630E0963110F030E0A5
:1034300020E030935E0520935D05292F30E0983021
:1034400008F073C081E001C0880F9A95EAF7809375
:103450005F0580916605909167050197F1F780916E
:10346000640590916505892B49F1E091DA04F091AA
:10347000DB0425E0EA34F20709F1309739F0A3893B
:10348000B4899C918589809589238C938091680566
:103490008E7F809368051092B0031092AF038AE488
:1034A00095E09093DB048093DA04E0915D05F09160
:1034B0005E05808190915F05892B808364E971E0CE
:1034C00089E194E00E94E00E68EB73E089E194E00A
:1034D0000E94CC0E8AE495E0909318048093170420
:1034E00005E010E085EB93E00E949A0F892B11F420
:1034F0000C94732468EE73E080E090E00E94250550
:103500000150110979F764E971E089E194E00E94C2
:10351000E00E68E973E089E194E00E94CC0E68E86F
:1035200073E180E090E00C94D8249E3040F4285061
:10353000310981E001C0880F2A95EAF788CF2E5023
:103540003109F7CF64E971E089E194E00E94E00E6F
:103550006FE573E089E194E00E94360363E373E072
:1035600089E194E00E94E00E61EB73E089E194E070
:103570000E94B30E0AE010E09E012F5F3F4F40ED26
:1035800053E063ED73E08BED93E00E941513882305
:1035900009F453C0DD24D39409E312E04EE4C42EB1
:1035A00050E2B52E6BE4E62E64E0F62E8091C8035F
:1035B0009091C903019709F468C068E072E089E15D
:1035C00094E00E94E00E6CE272E089E194E00E94D7
:1035D000B30ED092C1031F930F938CE292E09F939E
:1035E0008F93CF92BF92FF92EF920E94A2110FB6DB
:1035F000F894DEBF0FBECDBF64E971E0892B21F5E1
:1036000089E194E00E94E00E69E274E089E194E0CF
:103610000E94360363E373E089E194E00E94E00EC8
:103620006CE272E089E194E00E94B30E81E090E0E8
:103630009093C9038093C803B9CF60EF71E089E12B
:1036400094E00E94B30EFFCF89E194E00E94E00E67
:1036500066E374E089E194E00E94360363E373E07B
:1036600089E194E00E94E00E6CE272E089E194E06E
:103670000E94B30E68EE73E080E090E00E942505A2
:103680000E94AA0282E090E0D3CF64E472E089E174
:1036900094E00E94B30E64E672E089E194E00E9437
:1036A000E00E8AE791E09BA38AA31CA21DA21EA2A2
:1036B0001FA28091C10304E110E09E012F5F3F4FE4
:1036C000813009F0B5C145E154E067E174E080E282
:1036D00094E00E9415138823A1F161E772E0CE0106
:1036E00001960E9448260E9411268093BD0361E73F
:1036F00072E090E080E00E9448260E9411268093AC
:10370000BE0361E772E090E080E00E9448260E94DC
:1037100011268093BF0361E772E090E080E00E9491
:1037200048260E9411268093C0038091BD0390918A
:10373000BE03A091BF03B091C0038CA39DA3AEA311
:10374000BFA369E174E0CE0182960E94590E66EA39
:1037500071E089E194E00E94C40D63E772E089E1C1
:1037600094E00E94E00EE7EBF3E086E0DF011D92BB
:103770008A95E9F704E110E09E012F5F3F4F48EE84
:1037800053E06AEE73E084EF93E00E941513882300
:1037900009F454C06CEE72E0CE0101960E944826F6
:1037A00040E150E070E060E00E94FA246093BC03C6
:1037B0006CEE72E090E080E00E94482640E150E02C
:1037C00070E060E00E94FA246093BB036CEE72E04C
:1037D00090E080E00E94482640E150E070E060E028
:1037E0000E94FA246093BA036CEE72E090E080E0ED
:1037F0000E94482640E150E070E060E00E94FA2418
:103800006093B9036CEE72E090E080E00E9448267D
:1038100040E150E070E060E00E94FA246093B80359
:103820006CEE72E090E080E00E94482640E150E0BB
:1038300070E060E00E94FA246093B70386E0E7EB53
:10384000F3E0A2ECB3E001900D928A95E1F740E13C
:1038500050E06091C70389E194E00E94520E6CEE43
:1038600072E089E194E00E94E00E40E150E0609156
:10387000C60389E194E00E94520E6CEE72E089E189
:1038800094E00E94E00E40E150E06091C50389E1C0
:1038900094E00E94520E6CEE72E089E194E00E9486
:1038A000E00E40E150E06091C40389E194E00E94A1
:1038B000520E6CEE72E089E194E00E94E00E40E16D
:1038C00050E06091C30389E194E00E94520E6CEED7
:1038D00072E089E194E00E94E00E40E150E06091E6
:1038E000C20389E194E00E949F0E82E892E09093E7
:1038F0008B0580938A058BE597E090938D058093E7
:103900008C050E94580560930E0470930F048093F9
:10391000100490931104FE0131961F010E94C5020C
:1039200081110E94B80C60E080E00E94610D6EE899
:1039300072E082E395E00E94E00E0E94C5028823B7
:1039400009F44DC00E9458054B015C01209173059C
:1039500030917405A8EEB3E00E94112D00917D0511
:1039600010917E0520917F053091800575016401DD
:10397000C01AD10AE20AF30A97018601601771079B
:1039800082079307B0F00091790510917A05209194
:103990007B0530917C0575016401C01AD10AE20AE9
:1039A000F30A97018601601771078207930708F0F1
:1039B00075C080918105882309F441C08CEF9FEF89
:1039C000909391058093900580916D0590916E057F
:1039D000DC01ED91FC910488F589E02D09950E94A8
:1039E000580500910E0410910F042091100430919D
:1039F0001104601B710B820B930B60930A0470938C
:103A00000B0480930C0490930D040E94640588239A
:103A100051F080911F058C3009F4ACC208F049C206
:103A20008B3009F460C260E070E080EC9FE783C2F5
:103A30004DEF53E06FEF73E08BE094E04ACEE091FE
:103A40006F05F091700580EC8083E0916F05F09137
:103A50007005118280916D0590916E0560916F05E2
:103A600070917005DC01ED91FC910280F381E02DF5
:103A700042E050E009958092790590927A05A092F3
:103A80007B05B0927C0580927D0590927E05A09288
:103A90007F05B0928005B1E0B093810580916D05FE
:103AA00090916E05DC01ED91FC910084F185E02D93
:103AB0000995892B09F493CF80916F05909170053A
:103AC0000E946A06811104C000E010E0980123C141
:103AD000E0916F05F0917005D0801982EE24E39497
:103AE000F12C18AA19AA1AAA1BAA412C512C32018E
:103AF0004394C1010E946A06882331F387010F5F56
:103B00001F4F8981E0916F05F0917005EE0DFF1D4B
:103B10008083E981AE2FAF77B0E0A30192010E94CC
:103B2000CF2C28A939A94AA95BA9260F371F481FFE
:103B3000591F28AB39AB4AAB5BAB97E0440C551C23
:103B4000661C771C9A95D1F7E7FD41C03D2D307F6B
:103B500039AFCC24CA94C00ECCAA303309F04EC081
:103B600080916F0590917005800F911F0E946A06E9
:103B7000882309F4A9CF20916F0530917005C70102
:103B80000296820F931F0E946A06882309F49CCF35
:103B90000E5F1F4FE0916F05F0917005DF01DCA80B
:103BA000AD0DB11D1196CC901197D12CDC2CCC24ED
:103BB00012968C91C80ED11C808181FF03C022E037
:103BC000C20ED11C52E040E030E020E01DC0780180
:103BD0000530110509F08DCF8FEF9FEF9093910580
:103BE0008093900580916D0590916E05DC01ED91BB
:103BF000FC910488F589E02D099566CF50E040E0FE
:103C000030E020E0D12CC12CC801B0E0A0E0452E6E
:103C1000542E632E722E9801AD01241935094609E0
:103C200057092DAB3EAB4FAB58AF2EEF3FEF4FEFE9
:103C30005FEF2419350946095709ECA88E19910937
:103C4000A109B109280F391F4A1F5B1F2AAF3BAFDB
:103C50004CAF5DAFF12CE12C4DA95EA96FA978ADF9
:103C6000440D551D661D771D88A999A9AAA9BBA950
:103C7000481659066A067B06D8F5C1010E946A06F5
:103C8000882309F421CF80918E0590918F050097AC
:103C9000C1F0A9ADA033A9F44AAD5BAD6CAD7DAD6B
:103CA000440D551D661D771DC416D506E606F7069C
:103CB00040F4DC01ED91FC910190F081E02D6981EF
:103CC000099580917105909172050817190750F4B4
:103CD0008981E0916F05F0917005E00FF11F8083FD
:103CE0000F5F1F4FBFEF4B1A5B0A6B0A7B0AB4CF03
:103CF00080918E0590918F05892B69F480917105D3
:103D000090917205B0E0A0E084179507A607B70769
:103D100010F410E000E03801012B09F4C7C08092D4
:103D20007D0590927E05A0927F05B0928005E0917E
:103D30006F05F09170058081807F803309F095C018
:103D40008091820590918305892B09F448CECCA8F7
:103D5000EC2CF12C670122E0C20ED11CCF018C0D9E
:103D60009D1DDF01AE0DBF1D11960C9110E0102FAF
:103D70000027DC012C91020F111DB7016D5F7F4FF1
:103D80006E0F7F1FA8010E94DA319701200F311FAB
:103D9000E0916F05F0917005E20FF31F1282E09140
:103DA0006F05F0917005CF018C0D9D1DA3014E197B
:103DB0005F09B9016D5F7F4FA081A670DA2E609018
:103DC0008205709083056E0F7F1FB2E0AB1346C073
:103DD000DB01EC90F12CFE2CEE24DF01A20FB31FCF
:103DE00014966C91E60EF11C45505109401B510B85
:103DF0002B5F3F4FBF01620F731FF3010995E091E5
:103E00006F05F091700580E48083E0916F05F0917B
:103E10007005D182E0916F05F0917005F282E0911A
:103E20006F05F0917005E38280916D0590916E05AC
:103E300060916F0570917005DC01ED91FC9102803D
:103E4000F381E02D44E050E009958092790590924D
:103E50007A05A0927B05B0927C05C1CD43505109F3
:103E6000401B510BF3010995BACD803CC9F480ED9C
:103E70008083E0916F05F0917005118280916D054E
:103E800090916E0560916F0570917005DC01ED9168
:103E9000FC910280F381E02D42E050E009959FCD36
:103EA000803D09F09CCD1092810599CD0E94C502FC
:103EB00096CD8551823008F0B6CD10911B05612F4B
:103EC00070E0762F662766277F7780911C05682B28
:103ED00090E080E00E94832B2DEC3CEC4CEC5DE309
:103EE0000E94C02B63C060911B0570E090E080E0F1
:103EF0000E94832B6B017C0110911C0517FF0AC0E7
:103F0000AC019B0160E070E080E89FEB0E94202DF7
:103F10006B017C011F70612F70E090E080E00E94D7
:103F2000852B2DEC3CEC4CEC5DE30E94C02BA701F3
:103F300096010E94212D20E030E0A9010E94212D50
:103F40000E94FF2D6B017093F3036093F2030E94B4
:103F50006405882351F080911F058B3030F08D303F
:103F600048F18551823008F46AC360E070E080EC6B
:103F70009FE73CC010911B05612F70E090E080E04E
:103F80000E94832B6B017C0160911C056F7070E0B7
:103F900090E080E00E94852B2DEC3CEC4CEC5DE346
:103FA0000E94C02BA70196010E94212D17FFC3CFAD
:103FB0009058C1CF60911A0570E090E080E00E94B7
:103FC000852B2DEC3CEC4CEC5DE30E94C02B4B01AF
:103FD0005C016091190570E090E080E00E94852B03
:103FE0009B01AC01C501B4010E94212D20E030E00D
:103FF000A9010E94212D0E94FF2D4B017093F10316
:104000006093F0038091FD049091FE040E941108DA
:1040100040E06CEC8091FD049091FE040E94BE078C
:104020004091F40464E48091FD049091FE040E94A8
:10403000BE078091F804882311F1E091F704809184
:10404000F904882309F40DC38091F404811109C394
:104050000E9458052B013C018091FD049091FE04C3
:104060000E946B07813059F00E9458056419750948
:10407000860997096E3E72408105910568F3E091CB
:10408000FD04F091FE0413861586148612861186AF
:10409000108617821682158214821382BE016E5D0D
:1040A0007F4F8091FD049091FE040E949C0B811132
:1040B00000C360E070E08EEF92EC20E030E0A901F8
:1040C0000E94212D0E94FF2D7093EF036093EE0359
:1040D00081E00E94EF049093E9038093E80324E6D3
:1040E00030E0DC010E94CE2F2FEF33E040E050E0C3
:1040F0000E94B02C3093EB032093EA0380E00E94EF
:10410000EF049093ED038093EC039C01092E000CC7
:10411000440B550B833563E096070CF419C3285EF6
:10412000334041095109AAE0B0E00E94CF2C2AE6B1
:104130003FEF4FEF5FEF0E94B02C3093F5032093D9
:10414000F403B601DD0C880B990B0E94852B6B01E3
:104150007C0161ED72E0CE018A960E94711120E02F
:1041600030E040EF50E4C701B6010E94C02B2B01A4
:104170003C012DEC3CE44DE653E4C701B6010E943E
:10418000212D9B01AC01C301B2010E948D2D9B0129
:10419000AC0160E070E080E291E40E94352E6B019A
:1041A0007C011BA21AA21DA21CA21FA21EA2B40166
:1041B000990C880B990B0E94852B20E030E048EC8D
:1041C00052E40E948D2D9B01AC0160E070E080E81C
:1041D0009FE30E94202D4B015C012FE135E843EC69
:1041E00050E4C701B6010E94C02B9B01AC01C50180
:1041F000B4010E94C02B20E030E040E05FE30E9469
:10420000212D810121E043E00E94DC247C01009704
:1042100079F0FC0101900020E9F731978F01081B2C
:10422000190BB801CE0182960E9449118111B9C2C1
:10423000CE0182960E94760DBE016E5D7F4FCE014B
:104240008A960E941011CE0182960E94880DBE01AE
:10425000665D7F4F8CE295E00E941011CE018A9638
:104260000E94880DE6EFF3E0828193818193919320
:10427000B4E0E830FB07C1F78091F4039091F503B7
:104280009093090480930804E8EFF3E08191919101
:104290002091F6033091F703820F931F9093F70359
:1042A0008093F60324E0EA30F20781F76AE070E0D9
:1042B0000E94BA2F7093F7036093F60365EA72E0E9
:1042C00089E194E00E94E00E6091F2037091F303A3
:1042D00089E194E00E94480E6FEA72E089E194E07F
:1042E0000E94E00E6091F0037091F10389E194E087
:1042F0000E94480E6AEB72E089E194E00E94E00EB1
:104300006091EE037091EF0389E194E00E94480E02
:1043100065EC72E089E194E00E94E00E6091F403A4
:104320007091F50389E194E00E94480E60ED72E01F
:1043300089E194E00E94E00E6091EC037091ED033E
:1043400089E194E00E94480E62ED72E089E194E018
:104350000E94E00E6091F6037091F70389E194E00A
:104360000E94480E6DED72E089E194E00E94E00E3B
:10437000409130055091310560912C0570912D05CB
:1043800089E194E00E945A0363EE72E089E194E0CF
:104390000E94E00E6091EA037091EB0389E194E0E2
:1043A0000E94480E60ED72E089E194E00E94E00E08
:1043B0006091E8037091E90389E194E00E94480E5E
:1043C00061ED72E089E194E00E94B30E60E084E068
:1043D0000E94610D6091F2037091F30382E395E016
:1043E0000E94480E60E082E395E00E94700D00910B
:1043F000F0031091F10360E088E00A3011050CF041
:1044000087E00E94610DB80182E395E00E94480EAA
:104410006EEE72E082E395E00E94E00E61E084E0DF
:104420000E94610D6091EE037091EF0382E395E0CD
:104430000E94480E60E082E395E00E94700D80913A
:10444000F6039091F70361E00A970CF0B2C187E0A0
:104450000E94610D63E373E082E395E00E94E00E49
:1044600061E088E00E94610D6091F6037091F703AE
:1044700082E395E00E94480E6EEE72E082E395E0E2
:104480000E94E00E60E08BE00E94610D61E082E33B
:1044900095E00E94700D809130059091310560E0AB
:1044A000049708F488C18CE00E94610D40913005AA
:1044B0005091310560912C0570912D0582E395E0B6
:1044C0000E945A0361E08AE00E94610D62E373E09A
:1044D00082E395E00E94E00E61E08CE00E94610DB5
:1044E0008091EA039091EB030A9734F463E373E05D
:1044F00082E395E00E94E00E6091EA037091EB0385
:1045000082E395E00E94480E61E08EE00E94610D1A
:1045100061EF72E082E395E00E94E00E80910A0470
:1045200090910B04A0910C04B0910D04893B9B4029
:10453000A105B10508F4CAC10E94B80C60E080E092
:104540000E94610D64EF72E082E395E00E94E00E4C
:1045500061E080E00E94610D69EF72E082E395E026
:104560000E94E00E7090EA036090EB0390902C059F
:1045700080902D05B090F603A090F703D090EE0345
:10458000C090EF03F090F003E090F1031091F2037C
:104590000091F3030E9458056F927F928F929F9231
:1045A000AF92BF92CF92DF92EF92FF920F931F9341
:1045B0009F938F937F936F938EEF92E09F938F9350
:1045C0008AEC93E09F938F930E940932609171056A
:1045D000709172058AEC93E00E944D268C010E9436
:1045E000C5020FB6F894DEBF0FBECDBF882309F415
:1045F00059C1E0907105F0907205B7018CE193E02C
:104600000E944D269801295F3F4F820F931FE816A5
:10461000F90608F447C180916F0590917005FC017F
:104620003796ACE1B3E09D012C513340AF01481BFC
:10463000590B6D91662309F4CAC06193F4CF609160
:10464000190570911A0576276727762790E080E094
:104650000E94832B2DEC3CEC4CEC5DE30E94C02BC4
:10466000C5CCE9508EEE92E0E33038F4F0E0EE0F86
:10467000FF1FE85DFE4F808191812C01990F660834
:1046800077088091F504882329F060E08091F60492
:104690000E946704C301B2010E9425058091F504C0
:1046A000882309F4ECCC61E08091F6040E94670451
:1046B000E6CC67E0CE0182960E94540799A5891343
:1046C000F8CCB101CE0182960E944908882309F4F2
:1046D000F0CC6A8170E0762F6627770F770F770F1F
:1046E0002981E8E02E9F90011124262B372B8AA1E7
:1046F0008031E1F468856623C9F070E08F81AB01F9
:10470000481B5109CA019695982F88279795879538
:104710000E94BA2FCB018097B901A3E0660F771FE3
:10472000AA95E1F760789C01260F371F213854EED7
:1047300035070CF4BECCB901330F880B990B0E94DE
:10474000852B20E030E040E05CE30E94C02BB5CC3C
:104750008E3092409CF02255334041095109A0E52A
:10476000B0E00E94CF2C2BEB3EEF4FEF5FEF0E94AB
:10477000B02C265F3F4F4F4F5F4FDFCC2D50324064
:1047800041095109AAE0B0E00E94CF2C25EB3FEF90
:104790004FEF5FEF0E94B02C265A3F4F4F4F5F4FB5
:1047A000CCCC1FA30EA3B7018AA19BA10E94F33119
:1047B00043CD87E057CE8CE00E94610D63E373E048
:1047C00082E395E00E94E00E60E08DE06DCEBA01DC
:1047D000621B730B860F971FFC0132973083019782
:1047E000DC012C93EAECF3E09A012A5C3340C90126
:1047F0008E0F9F1F60916F0570917005DF01AA5C9D
:10480000B340A017B10730F4F190680F791FDB01B6
:10481000FC92EDCF05501109400F511FCA0120E055
:10482000382F3F77880F892F881F990B9195009714
:1048300009F03068F101E20FF11D30832F5F00971E
:1048400079F730E0FB01E21BF30B80E38483FB018B
:10485000E21BF30B3596D101CD0182199309821722
:1048600093071CF48D918193F7CF2F5F3F4F809179
:104870006D0590916E05420F531F621B730B6B5FAA
:104880007F4FDC01ED91FC910280F381E02D0995D1
:104890000E9458056093790570937A0580937B0593
:1048A00090937C0560E084E00E94610D68E273E013
:1048B00082E395E00E94E00E0E94580560930E048A
:1048C00070930F04809310049093110480E090E0A3
:1048D000892B09F423C80E94C403882309F41BC848
:1048E0000E94000018C888E593E00E949A0F68EBC8
:1048F0007BE080E090E00E9425050E94AA0283E50B
:1049000093E00E949A0F87E493E00E949A0F68EC6C
:1049100070E080E090E00E9425058BE393E00E9428
:104920009A0F8DE293E00E949A0F8DE193E00E942E
:104930009A0F8FE093E00E949A0F68EC70E080E09D
:1049400090E00E9425051092B10306E010E021EBF3
:1049500033E048EF52E06BEF72E088E093E00E94B2
:1049600015138091B1038153823030F48091B203EA
:104970008E3211F40C94A21A64E971E089E194E09A
:104980000E94E00E6AE773E089E194E00E9436033A
:1049900063E373E089E194E00E94E00E61EB73E071
:1049A00089E194E00E94B30E60EA7FE080E090E04D
:1049B0000E9425050C94BA1AEF920F931F93CF9380
:1049C000DF93E80134E047FD34E1042E000C550B81
:1049D00057FF03C0519541955109E32E022F242F13
:1049E000AE010E94B028CE01DF91CF911F910F91AF
:1049F000EF900895B0E0A0E0E0E0F5E20C94DB2C4D
:104A00005C016B017A016115710519F0FB0191835D
:104A10008083E114F10451F0C7010297839730F0CD
:104A200040E030E020E090E072C05E01E5012196B8
:104A3000F5011081812F90E00E942F26892BA9F784
:104A40001D3201F52196F501118101E0E114F10417
:104A500009F4DAC0F0E1EF16F10409F082C0103376
:104A600059F488818F7D883509F076C019812296A6
:104A70000260F0E1EF2EF12C812C912CA12C88E02A
:104A8000B82E8CC01B3221F4E5012296F50111816C
:104A900000E0DCCFEAE0EE16F10409F4BBC0F0E17F
:104AA000EF16F10409F06DC0E7CF78E0E72EF12CA6
:104AB000812C912CA12C60E1B62E70C03FE9310F02
:104AC0003A3128F439EA332E80C021E09AC0302FE1
:104AD0003170C114D10431F0222309F12197F6017C
:104AE000D183C08327FF21C060E070E080E090E8C0
:104AF000311104C06FEF7FEF8FEF9FE722E230E0CC
:104B00003093B0052093AF05462F372F282F642F01
:104B1000732F822FCDB7DEB7E1E10C94F72C01FFA4
:104B200004C02297F601D183C083332341F09095CE
:104B30008095709561957F4F8F4F9F4FE5CF97FF81
:104B4000E3CF82E290E09093B0058093AF056FEFE2
:104B50007FEF8FEF9FE7D8CF10E3E114F10409F462
:104B6000A4CF28E0E216F10409F4A2CF0CF092CF12
:104B7000812C912CA12CE0E4BE2E82E0E816F104F9
:104B800069F060E070E080E090E897010F2C000C85
:104B9000440B550B0E948E2C49015A0120E060E025
:104BA00070E0CB0127010F2C000C66087708FE018E
:104BB00050ED352E310E39E0331540F43FEB310F17
:104BC0003A3108F07BCF49EC342E310E3E141F04ED
:104BD0000CF07DCF27FD15C086169706A806B906EE
:104BE00078F0A30192010E947E2C630D711D811D3E
:104BF000911D61307105810520E8920708F465CFA9
:104C00002FEF21961081D3CF103309F42ACF2AE059
:104C1000E22EF12C9CEC892E982CA82C9CE0B92E2D
:104C2000BDCFFC0188279927E89421912032E9F330
:104C3000293010F02E30C8F32B3241F02D3239F4E8
:104C4000689404C00E947F26820F911D21912053F9
:104C50002A30C0F31EF4909581959F4F08959111CD
:104C60000C94E72A803219F089508550C8F70895CE
:104C7000FB01DC0105900D920020E1F70895FC0195
:104C800005900020E9F7809590958E0F9F1F08955D
:104C90004DEA55E00E9458260895FC01615070408D
:104CA00001900110D8F7809590958E0F9F1F089561
:104CB000FA01A191B081009719F41097E1F0CD01AC
:104CC000DC01CD010D90002011F4C00113C0FB01E7
:104CD0002191222319F02015D9F7F3CFFB0121915F
:104CE000201519F41E92119606C02223C1F70D90CB
:104CF0000020A1F7D001FA01A193B08308957AE0D2
:104D0000979F902D879F802D910D11240895AEE0DF
:104D1000B0E0EDE8F6E20C94E82C0D891E898EE0F7
:104D20008C831A8309838FEF9FE79E838D83AE0167
:104D3000475E5F4F6F89788DCE0101960E94D6261F
:104D40002F813885020F131FF80110822E96E4E0A0
:104D50000C94042DAEE0B0E0E0EBF6E20C94E82C0D
:104D60008C01FA018EE08C831A83098377FF02C0DD
:104D700060E070E8615071097E836D83A901BF0115
:104D8000CE0101960E94D6264D815E8157FD0AC054
:104D90002F813885421753070CF49A01020F131F15
:104DA000F80110822E96E4E00C94042DABE0B0E004
:104DB000ECEDF6E20C94DA2C7C013B018A01FC015B
:104DC00017821682838181FFC8C1CE0101965C01E2
:104DD000F7019381F30193FD859193FF81913F0149
:104DE000882309F453C1853239F493FD859193FFEB
:104DF00081913F01853229F4B70190E00E94F52AA4
:104E0000E7CF912C212C312CFFE1F31538F08B32B8
:104E100011F190F4803209F1833229F137FC3CC062
:104E200020ED280F2A3050F536FE20C08AE0989EEB
:104E3000200D1124922E06C08D3291F0803371F72F
:104E4000689430F8F30193FD859193FF81913F01C0
:104E50008111DACF21C0689431F8689432F8F2CF2A
:104E6000689433F8EFCF689434F8ECCFEAE02E9EE4
:104E7000200D1124222E689435F8E4CF8E3229F4C7
:104E800036FC04C1689436F8DDCF8C3619F468948A
:104E900037F8D8CF8836B1F2982F9F7D955493304C
:104EA000E0F08336A1F18337C1F1833509F063C0A7
:104EB0002801F2E04F0E511CF801C080D180692D0D
:104EC00070E036FC02C06FEF7FEFC6010E94EA2A55
:104ED0004C01689437F882010AC00C5F1F4FFFE352
:104EE000F98388248394912C6501E89437F833FE84
:104EF0002DC0522C8114910471F5552009F468CF0E
:104F0000B70180E290E00E94F52A5A94F6CFF801AA
:104F1000808189830E5F1F4FE4CF2801F2E04F0E9E
:104F2000511CF801C080D180692D70E036FC02C0B0
:104F30006FEF7FEFC6010E944D264C018201D5CF55
:104F4000B70180E290E00E94F52A2A9428141904FF
:104F500009F0B0F7CECFF60137FC859137FE81918D
:104F60006F01B70190E00E94F52A51105A94F1E0C8
:104F70008F1A9108BFCF843619F0893609F077C0AF
:104F8000F80137FE6BC060817181828193810C5F73
:104F90001F4FF32DFF763F2E97FF09C09095809508
:104FA000709561957F4F8F4F9F4F689437F82AE037
:104FB00030E0A5010E94252BC82ECA188C2C432C4A
:104FC00036FE0CC0E89440F8C91440F434FE05C025
:104FD00032FC03C0F32DFE7E4F2E892C44FE95C07B
:104FE000FE01EC0DF11D8081803309F087C0242D76
:104FF000297E422E842D8870582E43FC95C040FE99
:105000008FC09C2C821418F42C0C922C981844FEFF
:1050100091C0B70180E390E00E94F52A42FE09C0EA
:1050200088E790E041FE02C088E590E0B7010E9469
:10503000F52AC91408F48AC0CA94D12C9FEFC91A62
:10504000D90ACA0CDB1CF60182916F01B70190E00E
:105050000E94F52AAC14BD04B1F74FCF6081718175
:10506000072E000C880B990B0E5F1F4F92CFD32C8D
:10507000E894D4F82AE030E0853739F1232D297FF0
:10508000D22E8F3601F148F48835A9F0F7018681D8
:1050900097812B96E2E10C94F62C803749F0883703
:1050A000A9F7D4FE02C06894D2F820E130E00DC028
:1050B0006894D4F8F6CF34FE03C0822F8660D82ED1
:1050C00020E132E002C028E030E0F801D7FE0FC056
:1050D00060817181828193810C5F1F4FA5010E94C5
:1050E000252BC82ECA183D2CE89437F867CF60816D
:1050F000718190E080E00E5F1F4FF0CF42FC02C054
:10510000839478CF8394839475CF842D867809F423
:1051100071CFF6CFB70180E290E00E94F52A839428
:105120008214C0F3512C73CF522C5818821408F4F7
:105130006ECFF8CF842D867809F47BCF8BE241FEC9
:1051400080E247FC8DE2B70190E071CFB70180E3C8
:1051500090E00E94F52A9A946CCF8FEF9FEF99CF41
:10516000A9E0B0E0E6EBF8E20C94E02C6A01F22E44
:10517000B02E102FFBE3AF2EA01608F41BE31F5F29
:10518000012F27E0AE014F5F5F4F0E940F2ABC0145
:105190008981982F9970913009F43FC09BE2E1FC1E
:1051A00004C09E2D9170E0FC3AC05E2D5071E82F36
:1051B000E87083FF46C084E0911101C083E0EF2DC9
:1051C000E81B8F1508F0E0E0D6018E2F20E2552372
:1051D00051F1992329F0D6019C93C60101966C01E7
:1051E00096012D5F3F4FE2FE24C08EE4D6018C93E2
:1051F00091E411969C93119712968C93D9018E2F5E
:1052000090E281111BC0E20FF32FF11D10828EEF8F
:105210009FEF2996ECE00C94FC2C9DE2C6CF90E227
:10522000C4CF2D9381508111FCCFCE0ED11CE0E074
:10523000D0CF8EE6D6018C9391E6DBCF9D93815043
:10524000E0CF482F447082FF3DC084E0911101C03F
:1052500083E08F1510F4EF2DE81BD6018E2F20E28E
:10526000552309F1992329F0D6019C93C601019693
:105270006C0196012D5F3F4FE2FE1BC089E4D60111
:105280008C938EE411968C93119786E412968C93EE
:10529000D9018E2F90E2882309F4B5CF9D938150D8
:1052A000FACF2D9381508111FCCFCE0ED11CE0E0BE
:1052B000D9CF89E6D6018C938EE611968C931197FF
:1052C00086E6E4CF9B0177FF02C030E020E0A1E05A
:1052D000B0E0911102C0B0E0A0E0F9013196AE0F4C
:1052E000BF1F8B2C912CBB2009F461C05401EFEF40
:1052F000AE1ABE0AAA0DBB1DFA161B0619F014F051
:105300004F2D4A1B511188C0E3FC59C07601A42FD0
:10531000B0E2A1114FC0C40ED11C992309F45BC0A7
:1053200040E0D6011196F60190836D01552309F4F2
:1053300048C0012F060F9A81582F507184FF03C077
:10534000913309F4015010160CF047C0093008F0F1
:1053500008E0EEE2FE2E5B01A01AB10885019194EF
:10536000819491082F3F320729F4D601FC92F6016F
:1053700031966F016217730794F1021713077CF5DA
:10538000DB01A21BB30BAA24A394B12CAC0EBD1E4F
:10539000AA0DBB1D11968C9121503109D601119691
:1053A00028153905F4F0F60180836D01DBCFB12CAF
:1053B000A12CA0CFF701B1937F01A150AACF9111E9
:1053C000B0CFD601942F50E302C05D93915091115C
:1053D000FCCFC40ED11C40E0ACCF01E0BACF80E3DB
:1053E000DBCF6217730731F4963388F4953311F4E9
:1053F000552369F0F6018083FD01842F90E281112D
:1054000008C0A40FB11D1C9290E080E002CF81E3A0
:10541000F1CF91938150F3CF911183CF8ACF283070
:1054200008F027E03327DA01990F311D87FD9160DD
:1054300000966105710539F432602E5F3D9330E3CB
:105440002A95E1F708959F3F30F080387105610596
:1054500009F03C5F3C5F3D93913008F08068911DFE
:10546000DF93CF931F930F93FF92EF92192F987FA3
:105470009695E92F96959695E90FFF27EC5BFE4FE1
:1054800099273327EE24FF24A701E701059008940C
:10549000079428F4360FE71EF81E491F511D660FAA
:1054A000771F881F991F0694A1F70590079428F489
:1054B000E70EF81E491F561FC11D770F881F991F41
:1054C000661F0694A1F70590079428F4F80E491F6B
:1054D000561FC71FD11D880F991F661F771F06947F
:1054E000A1F70590079420F4490F561FC71FD81F36
:1054F000990F661F771F881F0694A9F7849110954E
:10550000177041F0D695C79557954795F794E7944E
:105510001A95C1F7EAEEF0E068941590159135916F
:105520006591959105907FE27395E118F10A430B1F
:10553000560BC90BD009C0F7E10CF11E431F561FD3
:10554000C91FD01D7EF4703311F48A95E6CFE8941C
:10555000015030F0080F0AF40027021708F4202F3A
:105560002395022F7A3328F079E37D932A95E9F782
:1055700010C07D932A9589F606949795679537957F
:1055800017951794E118F10A430B560BC90BD00974
:1055900098F023957E9173957A3308F070E37C93AD
:1055A0002013B8F77E9170617D9330F0839571E39D
:1055B0007D9370E32A95E1F71124EF90FF900F910E
:1055C0001F91CF91DF91992787FD90950895992795
:1055D00088270895FC010590615070400110D8F7AC
:1055E000809590958E0F9F1F08950F931F93CF93D3
:1055F000DF93182F092FEB018B8181FD09C01FEF6D
:105600000FEF812F902FDF91CF911F910F91089570
:1056100082FF14C02E813F818C819D81281739071C
:105620003CF4E881F981CF01019699838883108346
:105630008E819F8101969F838E83E3CFE885F985D4
:10564000812F0995892BA1F3DACFFA01AA272830F7
:1056500051F1203181F1E8946F936E7F6E5F7F4F3F
:105660008F4F9F4FAF4FB1E03ED0B4E03CD0670FBB
:10567000781F891F9A1FA11D680F791F8A1F911D0E
:10568000A11D6A0F711D811D911DA11D20D009F45E
:1056900068943F912AE0269F11243019305D3193A0
:1056A000DEF6CF010895462F4770405D4193B3E089
:1056B0000FD0C9F7F6CF462F4F70405D4A3318F030
:1056C000495D31FD4052419302D0A9F7EACFB4E0E1
:1056D000A6959795879577956795BA95C9F7009799
:1056E0006105710508959B01AC010A2E069457953A
:1056F000479537952795BA95C9F7620F731F841F91
:10570000951FA01D0895E89409C097FB3EF490955D
:105710008095709561957F4F8F4F9F4F9923A9F08A
:10572000F92F96E9BB279395F69587957795679519
:10573000B795F111F8CFFAF4BB0F11F460FF1BC05D
:105740006F5F7F4F8F4F9F4F16C0882311F096E9F0
:1057500011C0772321F09EE8872F762F05C066239E
:1057600071F096E8862F70E060E02AF09A95660F57
:10577000771F881FDAF7880F9695879597F9089510
:105780000E94D32B0C94442C0E94362C38F00E949B
:105790003D2C20F0952311F00C942D2C0C94332CDF
:1057A00011240C94782C0E94552C70F3959FC1F312
:1057B000950F50E0551F629FF001729FBB27F00DBF
:1057C000B11D639FAA27F00DB11DAA1F649F662714
:1057D000B00DA11D661F829F2227B00DA11D621F63
:1057E000739FB00DA11D621F839FA00D611D221F1D
:1057F000749F3327A00D611D231F849F600D211D01
:10580000822F762F6A2F11249F5750409AF0F1F083
:1058100088234AF0EE0FFF1FBB1F661F771F881FEC
:1058200091505040A9F79E3F510580F00C942D2CCB
:105830000C94782C5F3FE4F3983ED4F386957795EB
:105840006795B795F795E7959F5FC1F7FE2B880F92
:10585000911D9695879597F9089597F99F6780E828
:1058600070E060E008959FEF80EC089500240A94B2
:105870001616170618060906089500240A9412162B
:105880001306140605060895092E0394000C11F45E
:10589000882352F0BB0F40F4BF2B11F460FF04C00B
:1058A0006F5F7F4F8F4F9F4F089557FD9058440F64
:1058B000551F59F05F3F71F04795880F97FB991F6F
:1058C00061F09F3F79F0879508951216130614062C
:1058D000551FF2CF4695F1DF08C0161617061806B9
:1058E000991FF1CF86957105610508940895E89494
:1058F000BB2766277727CB0197F90895DB018F93A4
:105900009F930E94CF2CBF91AF91A29F800D911DBC
:10591000A39F900DB29F900D11240895A1E21A2E1D
:10592000AA1BBB1BFD010DC0AA1FBB1FEE1FFF1F43
:10593000A217B307E407F50720F0A21BB30BE40B93
:10594000F50B661F771F881F991F1A9469F76095DA
:105950007095809590959B01AC01BD01CF01089594
:10596000052E97FB1EF400940E94C72C57FD07D00C
:105970000E948E2C07FC03D04EF40C94C72C50953B
:105980004095309521953F4F4F4F5F4F089590952B
:105990008095709561957F4F8F4F9F4F08950E941E
:1059A000112DA59F900DB49F900DA49F800D911D6A
:1059B000112408952F923F924F925F926F927F929F
:1059C0008F929F92AF92BF92CF92DF92EF92FF920F
:1059D0000F931F93CF93DF93CDB7DEB7CA1BDB0BBB
:1059E0000FB6F894DEBF0FBECDBF09942A88398860
:1059F00048885F846E847D848C849B84AA84B98467
:105A0000C884DF80EE80FD800C811B81AA81B98172
:105A1000CE0FD11D0FB6F894DEBF0FBECDBFED0186
:105A20000895A29FB001B39FC001A39F700D811D77
:105A30001124911DB29F700D811D1124911D089597
:105A40005058BB27AA270E94382D0C94442C0E9442
:105A5000362C38F00E943D2C20F039F49F3F19F489
:105A600026F40C94332C0EF4E095E7FB0C942D2CCB
:105A7000E92F0E94552C58F3BA1762077307840761
:105A8000950720F079F4A6F50C94772C0EF4E095A8
:105A90000B2EBA2FA02D0B01B90190010C01CA01E8
:105AA000A0011124FF27591B99F0593F50F4503E93
:105AB00068F11A16F040A22F232F342F4427585F85
:105AC000F3CF469537952795A795F0405395C9F79D
:105AD0007EF41F16BA0B620B730B840BBAF0915055
